{
  "_format": "hh-sol-artifact-1",
  "contractName": "Insurance",
  "sourceName": "contracts/Insurance.sol",
  "abi": [
    {
      "inputs": [],
      "stateMutability": "nonpayable",
      "type": "constructor"
    },
    {
      "anonymous": false,
      "inputs": [
        {
          "indexed": false,
          "internalType": "uint256",
          "name": "_id",
          "type": "uint256"
        }
      ],
      "name": "InsuranceCreated",
      "type": "event"
    },
    {
      "anonymous": false,
      "inputs": [
        {
          "indexed": false,
          "internalType": "uint256",
          "name": "_id",
          "type": "uint256"
        }
      ],
      "name": "MedicalRecordCreated",
      "type": "event"
    },
    {
      "inputs": [],
      "name": "accidentId",
      "outputs": [
        {
          "internalType": "uint256",
          "name": "",
          "type": "uint256"
        }
      ],
      "stateMutability": "view",
      "type": "function"
    },
    {
      "inputs": [
        {
          "internalType": "address",
          "name": "_address",
          "type": "address"
        }
      ],
      "name": "addGovernmentAuthority",
      "outputs": [],
      "stateMutability": "nonpayable",
      "type": "function"
    },
    {
      "inputs": [
        {
          "internalType": "address",
          "name": "_user",
          "type": "address"
        }
      ],
      "name": "addHospital",
      "outputs": [],
      "stateMutability": "nonpayable",
      "type": "function"
    },
    {
      "inputs": [
        {
          "internalType": "uint256",
          "name": "_citizenID",
          "type": "uint256"
        },
        {
          "internalType": "string",
          "name": "_name",
          "type": "string"
        },
        {
          "internalType": "string[]",
          "name": "diagno",
          "type": "string[]"
        },
        {
          "internalType": "uint256",
          "name": "_bill",
          "type": "uint256"
        },
        {
          "internalType": "string",
          "name": "_hospital",
          "type": "string"
        }
      ],
      "name": "addMedicalRecord",
      "outputs": [],
      "stateMutability": "nonpayable",
      "type": "function"
    },
    {
      "inputs": [
        {
          "internalType": "address",
          "name": "_wallet",
          "type": "address"
        },
        {
          "internalType": "string",
          "name": "_name",
          "type": "string"
        },
        {
          "internalType": "uint256",
          "name": "id",
          "type": "uint256"
        }
      ],
      "name": "addUser",
      "outputs": [],
      "stateMutability": "nonpayable",
      "type": "function"
    },
    {
      "inputs": [
        {
          "internalType": "uint256",
          "name": "insuranceID",
          "type": "uint256"
        },
        {
          "internalType": "uint256",
          "name": "mrID",
          "type": "uint256"
        }
      ],
      "name": "claimInsurance",
      "outputs": [
        {
          "internalType": "uint256",
          "name": "",
          "type": "uint256"
        }
      ],
      "stateMutability": "nonpayable",
      "type": "function"
    },
    {
      "inputs": [
        {
          "internalType": "uint256",
          "name": "_citizenId",
          "type": "uint256"
        },
        {
          "internalType": "string[]",
          "name": "_policies",
          "type": "string[]"
        },
        {
          "internalType": "uint256",
          "name": "_maxAmount",
          "type": "uint256"
        }
      ],
      "name": "createMedicalInsurance",
      "outputs": [],
      "stateMutability": "nonpayable",
      "type": "function"
    },
    {
      "inputs": [
        {
          "internalType": "address",
          "name": "",
          "type": "address"
        }
      ],
      "name": "governmentAuthorities",
      "outputs": [
        {
          "internalType": "bool",
          "name": "",
          "type": "bool"
        }
      ],
      "stateMutability": "view",
      "type": "function"
    },
    {
      "inputs": [
        {
          "internalType": "address",
          "name": "",
          "type": "address"
        }
      ],
      "name": "hospitals",
      "outputs": [
        {
          "internalType": "bool",
          "name": "",
          "type": "bool"
        }
      ],
      "stateMutability": "view",
      "type": "function"
    },
    {
      "inputs": [
        {
          "internalType": "string",
          "name": "",
          "type": "string"
        }
      ],
      "name": "insuranceCompanies",
      "outputs": [
        {
          "internalType": "address",
          "name": "wallet",
          "type": "address"
        },
        {
          "internalType": "string",
          "name": "name",
          "type": "string"
        },
        {
          "internalType": "string",
          "name": "gstno",
          "type": "string"
        }
      ],
      "stateMutability": "view",
      "type": "function"
    },
    {
      "inputs": [],
      "name": "insuranceId",
      "outputs": [
        {
          "internalType": "uint256",
          "name": "",
          "type": "uint256"
        }
      ],
      "stateMutability": "view",
      "type": "function"
    },
    {
      "inputs": [],
      "name": "mrId",
      "outputs": [
        {
          "internalType": "uint256",
          "name": "",
          "type": "uint256"
        }
      ],
      "stateMutability": "view",
      "type": "function"
    },
    {
      "inputs": [],
      "name": "owner",
      "outputs": [
        {
          "internalType": "address",
          "name": "",
          "type": "address"
        }
      ],
      "stateMutability": "view",
      "type": "function"
    },
    {
      "inputs": [
        {
          "internalType": "address",
          "name": "_wallet",
          "type": "address"
        },
        {
          "internalType": "string",
          "name": "_name",
          "type": "string"
        },
        {
          "internalType": "string",
          "name": "_gstno",
          "type": "string"
        }
      ],
      "name": "registerInsuranceCompany",
      "outputs": [],
      "stateMutability": "nonpayable",
      "type": "function"
    },
    {
      "inputs": [
        {
          "internalType": "address",
          "name": "newOwner",
          "type": "address"
        }
      ],
      "name": "transferOwnership",
      "outputs": [],
      "stateMutability": "nonpayable",
      "type": "function"
    }
  ],
  "bytecode": "0x608060405234801561001057600080fd5b5033600360006101000a81548173ffffffffffffffffffffffffffffffffffffffff021916908373ffffffffffffffffffffffffffffffffffffffff1602179055506103e86000819055506103e86001819055506103e86002819055506119168061007c6000396000f3fe608060405234801561001057600080fd5b50600436106100f55760003560e01c80638da5cb5b11610097578063f0384fb611610066578063f0384fb614610260578063f093cf801461027c578063f0f8ec6e146102ac578063f2fde38b146102dc576100f5565b80638da5cb5b146101d8578063b3d23607146101f6578063b7574bd214610228578063ec940a5714610244576100f5565b80632d0977d1116100d35780632d0977d1146101505780632fb44f3b146101805780635acf77b01461019c57806378c7e87f146101ba576100f5565b8063063be06e146100fa57806317048356146101185780631b470bc714610134575b600080fd5b6101026102f8565b60405161010f919061162b565b60405180910390f35b610132600480360381019061012d9190611284565b6102fe565b005b61014e60048036038101906101499190611134565b610433565b005b61016a60048036038101906101659190611134565b61051e565b60405161017791906115f0565b60405180910390f35b61019a600480360381019061019591906112eb565b61053e565b005b6101a461075f565b6040516101b1919061162b565b60405180910390f35b6101c2610765565b6040516101cf919061162b565b60405180910390f35b6101e061076b565b6040516101ed9190611590565b60405180910390f35b610210600480360381019061020b9190611243565b610791565b60405161021f939291906115ab565b60405180910390f35b610242600480360381019061023d919061115d565b610901565b005b61025e60048036038101906102599190611134565b6109df565b005b61027a600480360381019061027591906111dc565b610aca565b005b61029660048036038101906102919190611134565b610b8a565b6040516102a391906115f0565b60405180910390f35b6102c660048036038101906102c191906113aa565b610baa565b6040516102d3919061162b565b60405180910390f35b6102f660048036038101906102f19190611134565b610de0565b005b60005481565b60006040518060a0016040528060025481526020018581526020013373ffffffffffffffffffffffffffffffffffffffff16815260200184815260200183815250905080600b60006002548152602001908152602001600020600082015181600001556020820151816001015560408201518160020160006101000a81548173ffffffffffffffffffffffffffffffffffffffff021916908373ffffffffffffffffffffffffffffffffffffffff16021790555060608201518160030190805190602001906103ce929190610eb4565b50608082015181600401559050507f3f2599beaab3d5998d583cb1e5668076bf7736565dc1e39afa8830291e22c28c60025460405161040d919061162b565b60405180910390a160026000815480929190610428906117cb565b919050555050505050565b600360009054906101000a900473ffffffffffffffffffffffffffffffffffffffff1673ffffffffffffffffffffffffffffffffffffffff163373ffffffffffffffffffffffffffffffffffffffff16146104c3576040517f08c379a00000000000000000000000000000000000000000000000000000000081526004016104ba9061160b565b60405180910390fd5b6001600560008373ffffffffffffffffffffffffffffffffffffffff1673ffffffffffffffffffffffffffffffffffffffff16815260200190815260200160002060006101000a81548160ff02191690831515021790555050565b60066020528060005260406000206000915054906101000a900460ff1681565b60006004600087815260200190815260200160002090506000816000015414156105bb576000604051806040016040528088815260200187815250905080600460008981526020019081526020016000206000820151816000015560208201518160010190805190602001906105b5929190610f14565b50905050505b60046000878152602001908152602001600020905060006040518060a001604052806001548152602001888152602001868152602001858152602001848152509050600860008881526020019081526020016000208190806001815401808255809150506001900390600052602060002090600502016000909190919091506000820151816000015560208201518160010155604082015181600201908051906020019061066a929190610eb4565b50606082015181600301556080820151816004019080519060200190610691929190610f14565b50505080600960006001548152602001908152602001600020600082015181600001556020820151816001015560408201518160020190805190602001906106da929190610eb4565b50606082015181600301556080820151816004019080519060200190610701929190610f14565b509050507ffa159b42c31f0ccf126e7da58847b1326ed1f3aa57361678228bf05ead5fee5f600154604051610736919061162b565b60405180910390a160016000815480929190610751906117cb565b919050555050505050505050565b60025481565b60015481565b600360009054906101000a900473ffffffffffffffffffffffffffffffffffffffff1681565b6007818051602081018201805184825260208301602085012081835280955050505050506000915090508060000160009054906101000a900473ffffffffffffffffffffffffffffffffffffffff16908060010180546107f090611799565b80601f016020809104026020016040519081016040528092919081815260200182805461081c90611799565b80156108695780601f1061083e57610100808354040283529160200191610869565b820191906000526020600020905b81548152906001019060200180831161084c57829003601f168201915b50505050509080600201805461087e90611799565b80601f01602080910402602001604051908101604052809291908181526020018280546108aa90611799565b80156108f75780601f106108cc576101008083540402835291602001916108f7565b820191906000526020600020905b8154815290600101906020018083116108da57829003601f168201915b5050505050905083565b600060405180606001604052808573ffffffffffffffffffffffffffffffffffffffff168152602001848152602001838152509050806007846040516109479190611562565b908152602001604051809103902060008201518160000160006101000a81548173ffffffffffffffffffffffffffffffffffffffff021916908373ffffffffffffffffffffffffffffffffffffffff16021790555060208201518160010190805190602001906109b8929190610f14565b5060408201518160020190805190602001906109d5929190610f14565b5090505050505050565b600360009054906101000a900473ffffffffffffffffffffffffffffffffffffffff1673ffffffffffffffffffffffffffffffffffffffff163373ffffffffffffffffffffffffffffffffffffffff1614610a6f576040517f08c379a0000000000000000000000000000000000000000000000000000000008152600401610a669061160b565b60405180910390fd5b6001600660008373ffffffffffffffffffffffffffffffffffffffff1673ffffffffffffffffffffffffffffffffffffffff16815260200190815260200160002060006101000a81548160ff02191690831515021790555050565b600060405180606001604052808573ffffffffffffffffffffffffffffffffffffffff16815260200184815260200183815250905080600d600084815260200190815260200160002060008201518160000160006101000a81548173ffffffffffffffffffffffffffffffffffffffff021916908373ffffffffffffffffffffffffffffffffffffffff1602179055506020820151816001019080519060200190610b76929190610f14565b506040820151816002015590505050505050565b60056020528060005260406000206000915054906101000a900460ff1681565b6000600e6000600154815260200190815260200160002060009054906101000a900460ff1615610bdd5760009050610dda565b6000600b600085815260200190815260200160002090506000600960008581526020019081526020016000209050600082600001541480610c22575060008160000154145b15610c3257600092505050610dda565b8060010154826001015414610c4c57600092505050610dda565b60005b8260030180549050811015610dd25760005b8260020180549050811015610dbe57826002018181548110610cac577f4e487b7100000000000000000000000000000000000000000000000000000000600052603260045260246000fd5b90600052602060002001604051602001610cc69190611579565b60405160208183030381529060405280519060200120846003018381548110610d18577f4e487b7100000000000000000000000000000000000000000000000000000000600052603260045260246000fd5b90600052602060002001604051602001610d329190611579565b604051602081830303815290604052805190602001201415610dab576001600e6000600154815260200190815260200160002060006101000a81548160ff0219169083151502179055508360040154836003015411610d9b578260030154945050505050610dda565b8360040154945050505050610dda565b8080610db6906117cb565b915050610c61565b508080610dca906117cb565b915050610c4f565b506000925050505b92915050565b600360009054906101000a900473ffffffffffffffffffffffffffffffffffffffff1673ffffffffffffffffffffffffffffffffffffffff163373ffffffffffffffffffffffffffffffffffffffff1614610e70576040517f08c379a0000000000000000000000000000000000000000000000000000000008152600401610e679061160b565b60405180910390fd5b80600360006101000a81548173ffffffffffffffffffffffffffffffffffffffff021916908373ffffffffffffffffffffffffffffffffffffffff16021790555050565b828054828255906000526020600020908101928215610f03579160200282015b82811115610f02578251829080519060200190610ef2929190610f14565b5091602001919060010190610ed4565b5b509050610f109190610f9a565b5090565b828054610f2090611799565b90600052602060002090601f016020900481019282610f425760008555610f89565b82601f10610f5b57805160ff1916838001178555610f89565b82800160010185558215610f89579182015b82811115610f88578251825591602001919060010190610f6d565b5b509050610f969190610fbe565b5090565b5b80821115610fba5760008181610fb19190610fdb565b50600101610f9b565b5090565b5b80821115610fd7576000816000905550600101610fbf565b5090565b508054610fe790611799565b6000825580601f10610ff95750611018565b601f0160209004906000526020600020908101906110179190610fbe565b5b50565b600061102e61102984611677565b611646565b9050808382526020820190508260005b8581101561106e578135850161105488826110f5565b84526020840193506020830192505060018101905061103e565b5050509392505050565b600061108b611086846116a3565b611646565b9050828152602081018484840111156110a357600080fd5b6110ae848285611757565b509392505050565b6000813590506110c5816118b2565b92915050565b600082601f8301126110dc57600080fd5b81356110ec84826020860161101b565b91505092915050565b600082601f83011261110657600080fd5b8135611116848260208601611078565b91505092915050565b60008135905061112e816118c9565b92915050565b60006020828403121561114657600080fd5b6000611154848285016110b6565b91505092915050565b60008060006060848603121561117257600080fd5b6000611180868287016110b6565b935050602084013567ffffffffffffffff81111561119d57600080fd5b6111a9868287016110f5565b925050604084013567ffffffffffffffff8111156111c657600080fd5b6111d2868287016110f5565b9150509250925092565b6000806000606084860312156111f157600080fd5b60006111ff868287016110b6565b935050602084013567ffffffffffffffff81111561121c57600080fd5b611228868287016110f5565b92505060406112398682870161111f565b9150509250925092565b60006020828403121561125557600080fd5b600082013567ffffffffffffffff81111561126f57600080fd5b61127b848285016110f5565b91505092915050565b60008060006060848603121561129957600080fd5b60006112a78682870161111f565b935050602084013567ffffffffffffffff8111156112c457600080fd5b6112d0868287016110cb565b92505060406112e18682870161111f565b9150509250925092565b600080600080600060a0868803121561130357600080fd5b60006113118882890161111f565b955050602086013567ffffffffffffffff81111561132e57600080fd5b61133a888289016110f5565b945050604086013567ffffffffffffffff81111561135757600080fd5b611363888289016110cb565b93505060606113748882890161111f565b925050608086013567ffffffffffffffff81111561139157600080fd5b61139d888289016110f5565b9150509295509295909350565b600080604083850312156113bd57600080fd5b60006113cb8582860161111f565b92505060206113dc8582860161111f565b9150509250929050565b6113ef8161170f565b82525050565b6113fe81611721565b82525050565b600061140f826116e8565b61141981856116f3565b9350611429818560208601611766565b611432816118a1565b840191505092915050565b6000611448826116e8565b6114528185611704565b9350611462818560208601611766565b80840191505092915050565b6000815461147b81611799565b6114858186611704565b945060018216600081146114a057600181146114b1576114e4565b60ff198316865281860193506114e4565b6114ba856116d3565b60005b838110156114dc578154818901526001820191506020810190506114bd565b838801955050505b50505092915050565b60006114fa6025836116f3565b91507f4f6e6c7920746865206f776e65722063616e2063616c6c20746869732066756e60008301527f6374696f6e0000000000000000000000000000000000000000000000000000006020830152604082019050919050565b61155c8161174d565b82525050565b600061156e828461143d565b915081905092915050565b6000611585828461146e565b915081905092915050565b60006020820190506115a560008301846113e6565b92915050565b60006060820190506115c060008301866113e6565b81810360208301526115d28185611404565b905081810360408301526115e68184611404565b9050949350505050565b600060208201905061160560008301846113f5565b92915050565b60006020820190508181036000830152611624816114ed565b9050919050565b60006020820190506116406000830184611553565b92915050565b6000604051905081810181811067ffffffffffffffff8211171561166d5761166c611872565b5b8060405250919050565b600067ffffffffffffffff82111561169257611691611872565b5b602082029050602081019050919050565b600067ffffffffffffffff8211156116be576116bd611872565b5b601f19601f8301169050602081019050919050565b60008190508160005260206000209050919050565b600081519050919050565b600082825260208201905092915050565b600081905092915050565b600061171a8261172d565b9050919050565b60008115159050919050565b600073ffffffffffffffffffffffffffffffffffffffff82169050919050565b6000819050919050565b82818337600083830152505050565b60005b83811015611784578082015181840152602081019050611769565b83811115611793576000848401525b50505050565b600060028204905060018216806117b157607f821691505b602082108114156117c5576117c4611843565b5b50919050565b60006117d68261174d565b91507fffffffffffffffffffffffffffffffffffffffffffffffffffffffffffffffff82141561180957611808611814565b5b600182019050919050565b7f4e487b7100000000000000000000000000000000000000000000000000000000600052601160045260246000fd5b7f4e487b7100000000000000000000000000000000000000000000000000000000600052602260045260246000fd5b7f4e487b7100000000000000000000000000000000000000000000000000000000600052604160045260246000fd5b6000601f19601f8301169050919050565b6118bb8161170f565b81146118c657600080fd5b50565b6118d28161174d565b81146118dd57600080fd5b5056fea26469706673582212200ab8caa387b4e26555ddd921cf176a244a3f8d7db936fc85399994ddbaa725e064736f6c63430008000033",
  "linkReferences": {},
  "deployedLinkReferences": {}
}